:020000040800F2
:1000000008070020790200081B140008E912000804
:10001000191400086F040008FF1700080000000012
:100020000000000000000000000000001F14000895
:1000300071040008000000001D14000821140008CD
:10004000930200089302000893020008930200083C
:10005000930200089302000893020008930200082C
:10006000930200089302000893020008930200081C
:10007000930200089302000893020008930200080C
:1000800093020008930200089302000893020008FC
:1000900093020008930200089302000893020008EC
:1000A00093020008930200089302000893020008DC
:1000B00093020008930200089302000893020008CC
:1000C00093020008930200089302000893020008BC
:1000D00093020008930200089302000893020008AC
:1000E000930200089302000893020008930200089C
:1000F000930200089302000893020008930200088C
:10010000930200089302000893020008930200087B
:100110007D1500089302000893020008930200086E
:10012000930200089302000893020008930200085B
:10013000930200089302000893020008930200084B
:10014000930200089302000893020008930200083B
:10015000930200089302000893020008930200082B
:10016000930200089302000893020008930200081B
:100170009302000893020008000000000000000045
:1001800093020008930200089302000893020008FB
:100190009302000893020008000000009302000888
:1001A0009302000893020008000000000000000015
:1001B0009302000800000000000000009302000805
:1001C00093020008930200089302000893020008BB
:1001D000930200089302000800F002F800F03CF8D7
:1001E0000AA090E8000C82448344AAF10107DA4592
:1001F00001D100F031F8AFF2090EBAE80F0013F0A8
:10020000010F18BFFB1A43F001031847C016000086
:10021000E0160000103A24BF78C878C1FAD8520717
:1002200024BF30C830C144BF04680C607047000070
:100230000023002400250026103A28BF78C1FBD8EF
:10024000520728BF30C148BF0B6070471FB501F08F
:100250002BFB1FBD10B510BD00F0CFF81146FFF706
:10026000F5FF01F0DDFA00F0EDF803B4FFF7F2FF5F
:1002700003BC00F0F5F80000094880470948004732
:10028000FEE7FEE7FEE7FEE7FEE7FEE7FEE7FEE746
:10029000FEE7FEE704480549054A064B70470000A3
:1002A000A5140008D9010008080100200807002053
:1002B000080300200803002053EA020C00F06980C4
:1002C0002DE9F04B4FF00006002B1FBFB3FA83F56A
:1002D00003FA05F424FA05F65E4012BF1643B2FA9B
:1002E00082F502FA05F4C5F120051EBF22FA05FCCD
:1002F00044EA0C04203556EA044C4FEA144418BF73
:10030000641C4FF000084FF00009904271EB030CA1
:1003100039D3002919BFB1FA81F701FA07F6B0FA0B
:1003200080F700FA07F6C7F120071EBF20FA07FC86
:1003300046EA0C062037B6FBF4FCA7EB0507103F96
:1003400007F01F0BCBF120060CFA0BFB2CFA06F67C
:1003500044BFB3460026202FA4BF5E464FF0000BDB
:100360005BEA060C08BF4FF0010B19EB0B09ABFB66
:10037000027C48EB0608C01B06FB02CC0BFB03CC3F
:1003800071EB0C01C1E70B46024641464846BDE809
:10039000F08B13B54FF000004FF00001AFF3008079
:1003A000BDE81C4070474FF0000200B5134694466C
:1003B0009646203922BFA0E80C50A0E80C50B1F1BD
:1003C0002001BFF4F7AF090728BFA0E80C5048BFD1
:1003D0000CC05DF804EB890028BF40F8042B08BF6F
:1003E000704748BF20F8022B11F0804F18BF00F86B
:1003F000012B7047704770477047754600F02CF826
:10040000AE4605006946534620F00700854618B001
:1004100020B5FFF73FFFBDE820404FF000064FF04A
:1004200000074FF000084FF0000B21F00701AC4629
:10043000ACE8C009ACE8C009ACE8C009ACE8C00948
:100440008D46704710B50446AFF300802046BDE8E6
:100450001040FFF70ABF000000487047A4000020CA
:1004600001491820ABBEFEE7260002007047FEE7F8
:1004700070472DE9F0410446876D00F049F90646C2
:1004800094F835000025022806D08020606584F8A5
:1004900034500120BDE8F0812068016821F0160188
:1004A00001602068416921F080014161206C08B938
:1004B000A06C20B12068016821F00801016020686B
:1004C000016821F0010101600CE000F021F9801BBE
:1004D000052807D920206065032084F8350084F8BA
:1004E0003450D7E720680068C007EED194F85C105C
:1004F0003F208840B860012084F8350084F83450EB
:100500000020C7E790F83510022903D0802141650B
:1005100001207047052180F835100068016821F03E
:1005200001010160002070472DE9F84FDFF8ACA110
:10053000002201240AF1040B03254FF00F090BF1EF
:10054000040E00BF0B6804FA02F63340B3426ED1CA
:100550000F7907F00307012F01D0022F16D187680A
:100560004FEA420805FA08FC27EA0C07D1F80CC04C
:100570000CFA08FC4CEA070CC0F808C04768B743FF
:100580000E79C6F3001696403E4346600E79F64358
:10059000B6070AD0C6684FEA420C05FA0CF7BE430C
:1005A0008F6807FA0CF73743C7600E7906F0030629
:1005B000022E10D1D60800EB8608D8F82060570725
:1005C0004FEAD76C09FA0CF7BE430F6907FA0CF72C
:1005D0003743C8F8207006684FEA420C05FA0CF75A
:1005E000BE430F7907F0030707FA0CF7374307609C
:1005F0004E6816F4403F6BD0394E376847F4804759
:100600003760366822F0030706F480460096354EC0
:1006100007EB060CDCF8086897074FEA177809FA29
:1006200008F7BE43304FB84202D100271FE04FE029
:100630002E4FB84201D1012719E02D4FB84201D108
:10064000022714E02B4FB84201D103270FE02A4FB5
:10065000B84201D104270AE0284FB84201D105274A
:1006600005E0274FB84201D1062700E0072707FA27
:1006700008F73743CCF80878DAF800605746D1F825
:1006800004C09E435FEACC3C00D51E433E60DBF8CD
:1006900000605F46D1F804C09E435FEA8C3C00D501
:1006A0001E433E60DEF800607746D1F804C09E43EA
:1006B0005FEACC2C00D51E433E60084F0C373E68E5
:1006C000D1F804C09E435FEA8C2C00D51E433E60E7
:1006D000521C102AFFF436AFBDE8F88F003C0140F1
:1006E0004438024000300140000002400004024053
:1006F00000080240000C02400010024000140240BA
:10070000001802400AB1816170470904FBE700004C
:100710000148806870470000080000200248816896
:100720000278114481607047080000200B4810B522
:10073000016841F400710160016841F48061016069
:10074000016841F480710160032000F06FF800201F
:1007500000F006F800F024F8002010BD003C024034
:1007600070B50D4D04464FF47A712878B1FBF0F066
:100770000A490968B1FBF0F000F014FB48B9102CED
:1007800007D200222146501E00F030F800206C6095
:1007900070BD012070BD0000080000201400002082
:1007A0000A4808B5016841F480410160006800F41E
:1007B000804000900548001F016841F080510160B1
:1007C000006800F08050009008BD000044380240EE
:1007D000002809DB00F01F02012191404009800040
:1007E00000F1E020C0F8001170470000F0B40E4B9B
:1007F0001B680C46C3F30223C3F10705042D00D97F
:100800000425191D072901D2002300E0DB1E012663
:1008100006FA05F1491E214099409E40761E164079
:100820003143F0BC00F0ECBF0CED00E0064900F0F5
:10083000070208684FF6FF03184040EA0220034A07
:1008400010430860704700000CED00E00000FA055E
:100850002DE9F0470E46050065D0DFF81481D8F881
:100860000000F7B200F00700B04207D288F800702D
:10087000D8F8000000F00700B04254D128683D4C81
:10088000810712D5400703D5206840F4E05020606E
:100890002878000703D5206840F460402060206875
:1008A000A96820F0F000084320602878C0072DD008
:1008B000304968680839012812D0022813D003286B
:1008C00011D00968890700292DDA216821F0030178
:1008D00001432160FFF71CFF814641F2883A0EE098
:1008E00009688903EFE709688901ECE7FFF710FF62
:1008F000A0EB0901514502D90320BDE8F08720682B
:10090000696800F00C00B0EB810FEFD1D8F800104F
:10091000404601F00701B14207D90770006800F0B6
:100920000700B04201D00120E7E72878400705D54D
:100930002068E96820F4E050084320602878000728
:1009400006D52068296920F4604040EAC100206093
:1009500000F038F82168084AC1F30311515CC8401F
:100960000649086006480068FFF7FAFE0020C4E761
:10097000003C024008380240B21800081400002071
:100980000C0000200448054900680968044AC1F3C6
:100990008221515CC8407047140000200838024092
:1009A000C21800080448054900680968044AC1F3F0
:1009B0004231515CC84070471400002008380240A2
:1009C000C2180008154810B5006810F00C02144851
:1009D00013D04110042A0FD0082A0ED10F4C241F27
:1009E0002268236802F03F025B0207D52068C0F34B
:1009F0008810A0FB010106E0084610BD2168C1F384
:100A00008811A1FB00010023FFF756FC2168C1F308
:100A10000141491C4900B0FBF1F010BD083802400B
:100A20000024F4002DE9F84F04006ED02078DFF8A0
:100A30006093C007A9F104054AD009F104000168D8
:100A4000C1F38101012908D00068C0F381000228A8
:100A50000AD1D9F80000400206D52868800337D5AE
:100A600060680028E1D033E06068B0F5803F10D0C6
:100A7000B0F5A02F286810D020F4803028602868B6
:100A800020F4802028606068A8B1FFF741FE064688
:100A90000DE0286840F48030F4E740F480202860BE
:100AA000F7E700BFFFF734FE801B642873D828687F
:100AB0008003F7D50CE0FFF72BFE064605E000BFEC
:100AC000FFF726FE801B6428F0D828688003F7D43F
:100AD0002078DFF8C08280074FF0000A3ED5AC488E
:100AE000001D016811F00C0F08D00068C0F38100F0
:100AF00002280BD1D9F80000400207D428688007EB
:100B000016D5E068012800D112E03CE1E068B8B1F8
:100B10000120C8F80000FFF7FBFD064605E000BF16
:100B2000FFF7F6FD801B0228C0D828688007F7D59C
:100B30002868216920F0F80040EAC10028600DE033
:100B4000C8F800A0FFF7E4FD064604E0FFF7E0FD6B
:100B5000801B02281FD828688007F7D42078000758
:100B600022D58B4E8C486169703671B101210160CC
:100B7000FFF7CEFD074604E0FFF7CAFDC01B0228C1
:100B800009D830688007F7D50EE0C0F800A0FFF75D
:100B9000BFFD074605E082E0FFF7BAFDC01B022853
:100BA0007DD830688007F7D42078400768D5DFF813
:100BB000E0B100270BF13C0BDBF80000C0000BD4C8
:100BC000DBF8001041F08051CBF80010DBF800009A
:100BD000012700F080500090704E3068C00510D49E
:100BE000306840F480703060FFF792FD009005E0BF
:100BF000FFF78EFD0099401A022850D83068C005D2
:100C0000F6D5634EA0686C3601280FD005283068F1
:100C100010D020F001003060306820F00400306017
:100C2000A068B8B1FFF774FD00900FE0306840F0A5
:100C30000100F4E740F004003060F7E7FFF768FDDB
:100C40000099411A41F28830814268D830688007A3
:100C5000F4D50EE0FFF75CFD009007E0FFF758FDCC
:100C60000099411A41F28830814258D83068800793
:100C7000F4D42FB1DBF8001021F08051CBF8001034
:100C8000A069D8B34249091D0968C1F3810102294D
:100C90004CD00228504607D0C8F8600000E03EE083
:100CA000FFF736FD04463DE04746C8F86000FFF711
:100CB0002FFD064605E000BFFFF72AFD801B022836
:100CC0002DD828688001F7D4F4E907010843E168CA
:100CD000334A490802EB0141A26841EA8211084304
:100CE000217C40EA0160217D40EA0171C9F80010D1
:100CF00001203866FFF70CFD044606E045E000BF22
:100D0000FFF706FD001B022809D828688001F7D5E7
:100D10003BE000BFFFF7FCFC001B022802D90320C8
:100D2000BDE8F88F28688001F4D42EE00128F7D0C0
:100D3000D9F80000E26900F48001914223D1226ACF
:100D400000F03F0191421ED147F6C071626A014036
:100D5000B1EB821F17D1A26A4FF0FF3300F440318C
:100D600003EB5202B1EB024F0DD194F82C2000F0AE
:100D70007061B1EB026F06D194F8301000F0E040E2
:100D8000B0EB017F01D00120CAE70020C8E70000D6
:100D90000438024000004742800E47420070004085
:100DA0000000FFFF10B5401EB0F1807F01D301208D
:100DB00010BD4FF0E02460610F21601700F020FDAE
:100DC0000020A06107202061002010BD10B50400A4
:100DD00003D094F83D0010B107E0012010BD0020C1
:100DE00084F83C00204600F01FF8022084F83D0003
:100DF000211D206800F05EFB012084F8460084F885
:100E00003E0084F83F0084F8400084F8410084F8F4
:100E1000420084F8430084F8440084F8450084F8D4
:100E20003D00002010BD000008B50068064988425A
:100E300008D10648016841F480710160006800F43F
:100E40008070009008BD0000002000404038024043
:100E500090F83D10012901D001207047022180F84F
:100E60003D1000681149884214D0B0F1804F11D074
:100E70000F4988420ED00F4988420BD00E49884254
:100E800008D00E49884205D00D49884202D00D494C
:100E9000884204D1816801F00701062903D0016866
:100EA00041F0010101600020704700000000014096
:100EB0000004004000080040000C00400004014015
:100EC000004001400018004070477047F8B50168C5
:100ED00004460868CA684B6910F00F0F4FF0000510
:100EE00059D003F0010602F49077374365D0C1076B
:100EF00005D0D10503D5216C41F0010121644107E2
:100F000005D5D90703D0216C41F002012164810786
:100F100005D5D90703D0216C41F0040121640107F4
:100F200007D502F02001314303D0216C41F00801C4
:100F30002164216C00293AD0800604D5900602D5A0
:100F4000204600F050FB20684069216CC0F38010FF
:100F5000090700D460B3204600F01EFB20684069FA
:100F6000400621D52068143050E8001F21F04001D0
:100F700040E80012002AF5D1A06BA8B16C490165C8
:100F8000A06BFFF7BFFA002811D0A06B016D01B074
:100F9000BDE8F040084783060FD593060DD52046DF
:100FA000BDE8F84000F01FBB2046FFF78EFFF8BDFC
:100FB0002046FFF78AFF2564F8BD266B2023012E0B
:100FC00079D1C60677D5D60675D5086848680090E9
:100FD0004869400640D5A16B086840680004000CD1
:100FE000EAD0A28D8242E7D9E085C869B0F5807F5A
:100FF0002DD020680C3050E8001F21F4807140E8AB
:101000000012002AF5D12068143050E8001F21F0AA
:10101000010140E80012002AF5D12068143050E8A0
:10102000001F21F0400140E80012002AF5D184F8A9
:101030003E30256320680C3050E8001F21F010017D
:1010400040E80012002AF5D1A06BFFF712FAA08D3C
:10105000E18D401A81B229E0A08DE18D401A81B264
:10106000E08D0028A8D00029A6D020680C3050E8D8
:10107000002F22F4907240E80026002EF5D120685F
:10108000143050E8002F22F0010240E80026002E24
:10109000F5D184F83E30256320680C3050E8002FED
:1010A00022F0100240E80023002BF5D12046FFF784
:1010B0000BFFF8BDFFE705062BD5150629D594F8DB
:1010C0003D002128F5D1A068B0F5805F01D12069ED
:1010D000B0B1206A411C2162216800784860E08C30
:1010E000401E0004000CE084E3D12068C16821F0B8
:1010F0008001C1602068C16841F04001C160D8E74B
:10110000206A0088C0F308004860206A801C2062C2
:10111000E5E74006CDD55006CBD5CA68204622F07B
:101120004002CA6084F83D3000F0DDF8C1E70000FD
:101130008915000870B5040004D094F83D0000251E
:1011400010B106E0012070BD84F83C50204600F04C
:1011500023F8242084F83D002068C16821F4005160
:10116000C160204600F0A0FA2068016921F4904196
:1011700001612068416921F02A0141612068C1684C
:1011800041F40051C1602564202084F83D0084F8BA
:101190003E00002070BD000010B586B0044614214A
:1011A0006846FFF700F917492068884227D116489A
:1011B0000021026842F400220260006800F400206E
:1011C000059011481038026842F001020260006880
:1011D000022200F0010005900320CDE90210CDE9C4
:1011E00000020820049069460848FFF79DF9002294
:1011F00011463420FFF7FAFA3420FFF7E9FA06B077
:1012000010BD0000004C0040403802400000024089
:1012100090F83E30202B0ED159B152B190F83C30AD
:10122000012B08D0012380F83C300023036300F039
:10123000CBBA0120704702207047000070B51749F3
:10124000884229D1164C174E611C207868B10020C5
:10125000207004221148491CFFF7DAFF3046BDE830
:10126000704001228021FFF74DBA08780125E72858
:1012700009D104220948491C00F016F800228021F7
:101280003046FFF73FFA2570BDE87040044901225F
:10129000491C0248FFF7BCBF70BD00006000002081
:1012A000000000200004024090F83D30202B18D1AF
:1012B000A9B1A2B190F83C30012B12D00162828416
:1012C000C28400210164212280F83D2080F83C1076
:1012D0000068C16841F08001C160002070470120B2
:1012E0007047022070477047FEE700002DE9F0418B
:1012F00086B014216846FFF756F84148002401687B
:1013000041F004010160016801F0040105910168E8
:1013100041F080010160016801F0800105910168E0
:1013200041F001010160016801F0010105910168CE
:1013300041F002010160016801F0020105910168BC
:1013400041F008010160016801F0080105910168A0
:1013500041F04001016000682A4E00F0400044F274
:1013600081050590002229463046FFF7CBF9DFF8CA
:101370009880002240214046FFF7C4F94FF4005006
:1013800000904FF48810CDE9010469461F48FFF72B
:10139000CBF800950125CDE9015469463046039408
:1013A000FFF7C2F84FF440700226CDE9000603278C
:1013B00002940720CDE9037069461548FFF7B4F899
:1013C00040200090CDE90154694640460394FFF760
:1013D000ABF88020CDE90004694640460294FFF74F
:1013E000A3F84FF4E850CDE9000602940A20CDE9B5
:1013F000037069460748FFF797F806B0BDE8F0812B
:101400003038024000040240001802400008024048
:10141000000C024000000240FEE7FEE77047704704
:10142000FFF77CB910B594B034216846FEF7BBFFD6
:1014300014210DA8FEF7B7FF18480024016841F0F9
:1014400080510160006800F08050129014480168DB
:1014500041F4404101600068069400F4404012905D
:101460000220009001200390102004906846FFF7AE
:10147000D9FA08B172B6FEE70F20CDE90D044FF49A
:101480008050CDE90F4000210DA81194FFF7E0F93D
:10149000002801D072B6FEE714B010BD40380240FB
:1014A000007000400248016841F47001016070471B
:1014B00088ED00E0F0B50268254C264D264E274FFA
:1014C000274B4FF0804CA04209D0604507D0A8427E
:1014D00005D0B04203D0B84201D0984204D122F0E6
:1014E000700E4A6842EA0E02A0421BD0604519D035
:1014F000A84217D0B04215D0B84213D0984211D0AC
:10150000184DA8420ED0184DA8420BD0174DA84236
:1015100008D0174DA84205D0164DA84202D0164D4E
:10152000A84203D122F44075CA682A434D6922F0CB
:1015300080022A4302608A68C2620A688262A0420C
:1015400001D0984201D10969016301214161F0BDD7
:10155000000001400004004000080040000C004072
:1015600000040140004001400044014000480140A7
:1015700000180040001C0040002000400148FFF718
:10158000A5BC00006000002010B5806B0021C18563
:10159000C184FFF79AFC10BD01680C3151E8002F9F
:1015A00022F4907241E80023002BF5D10168143138
:1015B00051E8002F22F0010241E80023002BF5D171
:1015C000016B012909D101680C3151E8002F22F08B
:1015D000100241E80023002BF5D1202180F83E10B5
:1015E00000210163704708B590F83E10222901D010
:1015F000022008BD82684FF480539A4201D10169EC
:1016000021B1816A9A421BD04AB10AE00268816A1C
:101610005268C2F308020A80816A891C08E00269E4
:1016200072B10268526802F07F020A70816A491C36
:101630008162C18D491E0904090CC18503D019E0DE
:1016400002685268F1E70168CA6822F02002CA60A5
:101650000168CA6822F48072CA6001684A6922F08F
:1016600001024A61202180F83E10016B012903D05C
:10167000FFF7E4FD002008BD0021016301680C3183
:1016800051E8002F22F0100241E80023002BF5D191
:1016900001680A68D20602D50A6849680091818DFE
:1016A000FFF712FCE6E7000070B504460068016928
:1016B000E26821F44051114301612169A068E269A7
:1016C00008436169114308432168CA6849F20C6301
:1016D0009A430243CA6020684169A26921F44071BB
:1016E0001143416134492068884208D03349884217
:1016F00005D03349884202D03249884202D1FFF7EF
:1017000051F901E0FFF73EF9E26900231921642550
:101710003226B2F5004F626828D0A0FB0101930F7A
:101720009200FEF7C9FD0146B0FBF5F06FF018021C
:10173000504301EB800006EB0010B0FBF5F000F029
:10174000F002B1FBF5F002EB0012B1FBF5F06FF027
:101750001803584301EB800006EB0010B0FBF5F0D6
:1017600000F00F0021681044886070BDA0FB0101EB
:1017700092185B41FEF7A0FD0146B0FBF5F00201B7
:10178000B1FBF5F06FF01803584301EB800006EB56
:10179000C000B0FBF5F000F0F80002EB4002B1FB36
:1017A000F5F0584301EB800006EBC000B0FBF5F00C
:1017B00000F00700D6E700000010014000140140CF
:1017C00000180140001C014081628285C285002111
:1017D0000164222280F83E2080F83C100168CA682B
:1017E00042F48072CA6001684A6942F001024A61AB
:1017F0000068C16841F02001C16000207047FEE729
:101800000907090E002804DB00F1E02080F800142D
:10181000704700F00F0000F1E02080F8141D7047C1
:10182000FEF784FFFFF7FEFDFFF760FD1B481A4936
:10183000002401604FF4E131C0E901140C21C460BF
:10184000C0E904418461C461FFF774FC08B172B659
:10185000FEE7124812494838016043F67F61C0E94B
:1018600001144FF6FF71C0E903148461FFF7AEFA6B
:1018700008B172B6FEE709484838FFF7E9FA0948A7
:10188000084904700120491E02460870491C03489B
:10189000FFF7BEFCFEE70000004C004060000020A7
:1018A00000200040010000204FF04070E1EE100ADF
:1018B000704700000000000000000102030406075A
:1018C000080900000000010203040000EC180008F1
:1018D000000000201800000014020008041900088D
:1018E00018000020F006000030020008010000008F
:1018F00000000000010000001000000000000000D7
:041900000024F400CB
:04000005080001D915
:00000001FF
