:020000040800F2
:10000000C00600207902000821130008BF12000872
:100010001D1300086F040008C91400080000000048
:10002000000000000000000000000000271300088E
:1000300073040008000000002513000829130008BD
:10004000930200089302000893020008930200083C
:10005000930200089302000893020008930200082C
:10006000930200089302000893020008930200081C
:10007000930200089302000893020008930200080C
:1000800093020008930200089302000893020008FC
:1000900093020008930200089302000893020008EC
:1000A00093020008930200089302000893020008DC
:1000B00093020008930200089302000893020008CC
:1000C00093020008930200089302000893020008BC
:1000D00093020008930200089302000893020008AC
:1000E000930200089302000893020008930200089C
:1000F00093020008E113000893020008930200082D
:10010000930200089302000893020008930200087B
:10011000930200089302000893020008930200086B
:10012000930200089302000893020008930200085B
:10013000930200089302000893020008930200084B
:10014000930200089302000893020008930200083B
:10015000930200089302000893020008930200082B
:10016000930200089302000893020008930200081B
:100170009302000893020008000000000000000045
:1001800093020008930200089302000893020008FB
:100190009302000893020008000000009302000888
:1001A0009302000893020008000000000000000015
:1001B0009302000800000000000000009302000805
:1001C00093020008930200089302000893020008BB
:1001D000930200089302000800F002F800F03CF8D7
:1001E0000AA090E8000C82448344AAF10107DA4592
:1001F00001D100F031F8AFF2090EBAE80F0013F0A8
:10020000010F18BFFB1A43F00103184754130000F5
:1002100074130000103A24BF78C878C1FAD8520786
:1002200024BF30C830C144BF04680C607047000070
:100230000023002400250026103A28BF78C1FBD8EF
:10024000520728BF30C148BF0B6070471FB501F08F
:1002500075F91FBD10B510BD00F0CFF81146FFF7BE
:10026000F5FF01F04FF900F0EDF803B4FFF7F2FFEE
:1002700003BC00F0F5F80000094880470948004732
:10028000FEE7FEE7FEE7FEE7FEE7FEE7FEE7FEE746
:10029000FEE7FEE704480549054A064B70470000A3
:1002A000CD130008D9010008C0000020C0060020BE
:1002B000C0020020C002002053EA020C00F0698056
:1002C0002DE9F04B4FF00006002B1FBFB3FA83F56A
:1002D00003FA05F424FA05F65E4012BF1643B2FA9B
:1002E00082F502FA05F4C5F120051EBF22FA05FCCD
:1002F00044EA0C04203556EA044C4FEA144418BF73
:10030000641C4FF000084FF00009904271EB030CA1
:1003100039D3002919BFB1FA81F701FA07F6B0FA0B
:1003200080F700FA07F6C7F120071EBF20FA07FC86
:1003300046EA0C062037B6FBF4FCA7EB0507103F96
:1003400007F01F0BCBF120060CFA0BFB2CFA06F67C
:1003500044BFB3460026202FA4BF5E464FF0000BDB
:100360005BEA060C08BF4FF0010B19EB0B09ABFB66
:10037000027C48EB0608C01B06FB02CC0BFB03CC3F
:1003800071EB0C01C1E70B46024641464846BDE809
:10039000F08B13B54FF000004FF00001AFF3008079
:1003A000BDE81C4070474FF0000200B5134694466C
:1003B0009646203922BFA0E80C50A0E80C50B1F1BD
:1003C0002001BFF4F7AF090728BFA0E80C5048BFD1
:1003D0000CC05DF804EB890028BF40F8042B08BF6F
:1003E000704748BF20F8022B11F0804F18BF00F86B
:1003F000012B7047704770477047754600F02CF826
:10040000AE4605006946534620F00700854618B001
:1004100020B5FFF73FFFBDE820404FF000064FF04A
:1004200000074FF000084FF0000B21F00701AC4629
:10043000ACE8C009ACE8C009ACE8C009ACE8C00948
:100440008D46704710B50446AFF300802046BDE8E6
:100450001040FFF70ABF0000004870475C00002012
:1004600001491820ABBEFEE726000200704700BF1E
:10047000FEE7704772B600BFFEE7000070B50446A5
:1004800000F012F906462546681C10B104480078B1
:10049000054400BF00F008F9801BA842FAD370BDE4
:1004A0000C000020F8B502460B4600250024002071
:1004B0000021D0E0012606FA01F51E6806EA0504CF
:1004C000AC4274D11E7906F00306012E04D01E79C9
:1004D00006F00306022E13D190684F000326BE409B
:1004E000B0434F00DE68BE40304390605068012644
:1004F0008E40B0431E79C6F300168E4030435060E4
:100500001E7906F00306032E09D0D0684F0003269B
:10051000BE40B0434F009E68BE403043D0601E795D
:1005200006F00306022E13D1CF0802F1200656F87A
:1005300027004E07F70E0F26BE40B0434F07FF0EB1
:100540001E69BE403043CF0802F1200646F827005E
:1005500010684F000326BE40B0431E7906F0030624
:100560004F00BE40304310605E6806F44036002EF7
:1005700070D000BF00260096394E366846F480469B
:10058000374F3E603E46366806F48046009600BF10
:1005900000BF344E8F0856F827008E07370F0F26FE
:1005A000BE40B043304EB24202D100261FE051E0BF
:1005B0002E4EB24201D1012619E02D4EB24201D198
:1005C000022614E02B4EB24201D103260FE02A4E40
:1005D000B24201D104260AE0284EB24201D10526DA
:1005E00005E0274EB24201D1062600E007268F071C
:1005F0003F0FBE4030431B4E8F0846F82700214E68
:100600003068A0435E6806F4803606B120431D4E74
:100610003060361D3068A0435E6806F4003606B1CF
:100620002043184E361D3060361D3068A0435E688A
:1006300006F4801606B12043124E08363060361D8F
:100640003068A0435E6806F4001606B120430D4EE4
:100650000C363060491C1029FFF42CAFF8BD0000A7
:1006600044380240083801400000024000040240C3
:1006700000080240000C024000100240001402403A
:1006800000180240003C014010B5426921EA020313
:1006900002EA010443EA0443836110BD0AB18161A7
:1006A00001E00B0483617047014800687047000057
:1006B0000400002003480068034909780844014900
:1006C00008607047040000200C00002010B50D48A1
:1006D000006840F400700B4908600846006840F468
:1006E000806008600846006840F48070086003205D
:1006F00000F0C2F80F2000F007F800F04BF80020DF
:1007000010BD0000003C024070B588B004460025D2
:100710000026002221462D2000F070F82D2000F048
:100720005DF800BF002001901648006840F480701A
:10073000144908600846006800F48070019000BF0A
:1007400000BF02A903A800F06DF900F093F945007D
:100750000D48B5FBF0F0461E0C480D49086040F20C
:10076000E7310B48C160466000210161816000F003
:1007700043FC20B9064800F073FC08B070BD0120AE
:10078000FBE700004038024040420F0000200040DC
:100790001400002008B500BF002000900E4800683B
:1007A00040F480400C4908600846006800F480402E
:1007B000009000BF00BF00BF00200090081F00682D
:1007C00040F08050091F08600846006800F0805023
:1007D000009000BF00BF08BD4438024001460846F3
:1007E000002809DB00F01F0301229A4043099B0007
:1007F00003F1E023C3F8002100BF70472DE9F05F4B
:1008000080460D461646002700F060FE0746394632
:100810002A46334601F00700C0F1070ABAF1040F77
:1008200002D94FF0040A01E0C0F1070AD14600F1F5
:10083000040ABAF1070F02D24FF0000A01E0A0F15A
:10084000030AD4464FF0010A0AFA09FAAAF1010A8A
:100850000AEA020A0AFA0CFA4FF0010B0BFA0CFB37
:10086000ABF1010B0BEA030B4AEA0B0421464046AD
:1008700000F034FEBDE8F09F00BF00F00702064B19
:1008800019684FF6FF031940044B0B4343EA02215A
:10089000014B196000BF70470CED00E00000FA0545
:1008A00070B504460D460CB9012070BD584800686B
:1008B00000F00700A84209D255490D7008460068AB
:1008C00000F00700A84201D00120EEE7207800F0F8
:1008D000020002281DD1207800F00400042805D170
:1008E0004C48006840F4E0504A490860207800F025
:1008F0000800082805D14748006840F46040454991
:1009000008604448006820F0F000A16808434149AD
:100910000860207800F00100A8B36068012807D1C2
:100920003C4808380068C0F34040B8B90120BCE733
:100930006068022802D06068032807D1354808386B
:100940000068C0F3406048B90120AEE7314808387C
:100950000068C0F3400008B90120A6E72D480068F0
:1009600020F00300616808432A490860FFF79CFEF5
:10097000064609E0FFF798FE801B41F28831884265
:1009800002D9032091E707E02248006800F00C003C
:100990006168B0EB810FEDD11D48006800F00700E1
:1009A000A84209D91A490D700846006800F00700EE
:1009B000A84201D0012078E7207800F00400042844
:1009C00007D11448006820F4E050E1680843114959
:1009D0000860207800F00800082808D10D48006859
:1009E00020F46040216940EAC1000A49086000F033
:1009F00051F808490968C1F30311074A515CC8401E
:100A00000649086006480068FFF77EFE00204CE7B4
:100A1000003C024008380240461500081000002043
:100A2000080000200F2202600D4A126802F0030243
:100A300042600B4A126802F0F0028260084A1268B3
:100A400002F4E052C260064A126802F46042D20820
:100A50000261044A126802F007020A60704700004F
:100A600008380240003C024001480068704700001E
:100A70001000002000B5FFF7F7FF04490968C1F333
:100A80008221034A515CC84000BD00000838024082
:100A9000561500082DE9F047002400250026A14640
:100AA0002548006800F00C0020B1042805D0082873
:100AB0003AD105E0DFF8849039E0DFF8849036E041
:100AC0001D48001F006800F03F041B48001F00681D
:100AD00000F4800078B11A481749091F0968C1F36A
:100AE0008811A0FB01700146224600233846FFF71B
:100AF000E3FB05460EE011480F49091F0968C1F3E1
:100B00008811A0FB01700146224600233846FFF7FA
:100B1000D3FB05460848001F0068C0F30140401C95
:100B20004600B5FBF6F902E0DFF8109000BF00BF09
:100B30004846BDE8F0870000083802400024F40071
:100B400000127A00F8B504460CB90120F8BD2078EF
:100B500000F00100002874D0F748006800F00C0095
:100B600004280DD0F448006800F00C00082813D1C8
:100B7000F148001F006800F48000B0F5800F0BD131
:100B8000ED4808380068C0F34040002859D060683C
:100B9000002856D10120D9E700BF6068B0F5803F3A
:100BA00008D1E5480838006840F48030E249083947
:100BB00008601EE06068B0F5A02F0DD1DE4808384F
:100BC000006840F48020DC49083908600846006865
:100BD00040F4803008600CE0D7480838006820F402
:100BE0008030D549083908600846006820F4802024
:100BF000086000BF606890B1FFF756FD054606E04B
:100C0000FFF752FD401B642801D903209EE7CA4824
:100C100008380068C0F340400028F1D011E0FFF729
:100C200043FD054606E0FFF73FFD401B642801D960
:100C300003208BE7C04808380068C0F34040002814
:100C4000F1D1207800F0020002285FD1BA48006894
:100C500000F00C0058B1B848006800F00C000828FB
:100C60001CD1B548001F006800F48000B0B9B2483C
:100C700008380068C0F3400020B1E068012801D0C6
:100C8000012063E7AC480838006820F0F8002169CB
:100C900040EAC100A8490839086037E0E06800B3BD
:100CA0000120A6490860FFF7FFFC054606E0FFF7B4
:100CB000FBFC401B022801D9032047E79E48083867
:100CC0000068C0F340000028F1D09B480838006855
:100CD00020F0F800216940EAC1009749083908600E
:100CE00014E0002095490860FFF7DEFC054606E0A9
:100CF000FFF7DAFC401B022801D9032026E78E48C3
:100D000008380068C0F340000028F1D1207800F0D6
:100D1000080008282CD16069A8B101208849086022
:100D2000FFF7C2FC054606E0FFF7BEFC401B0228A9
:100D300001D903200AE780486C300068C0F3400006
:100D40000028F1D014E000207D490860FFF7ACFCDA
:100D5000054606E0FFF7A8FC401B022801D9032046
:100D6000F4E675486C300068C0F340000028F1D10B
:100D7000207800F00400042870D100276E48383035
:100D8000006800F0805090B900BF002000906A48D1
:100D90003830006840F080506749383108600846B4
:100DA000006800F08050009000BF00BF0127654838
:100DB000006800F48070B0B96248006840F4807048
:100DC00060490860FFF770FC054606E0FFF76CFC21
:100DD000401B022801D90320B8E65A48006800F4F5
:100DE00080700028F2D000BFA068012808D15248C6
:100DF0006830006840F001004F49683108601DE02C
:100E0000A06805280DD14C486830006840F0040007
:100E10004949683108600846006840F001000860F0
:100E20000CE045486830006820F001004249683114
:100E300008600846006820F00400086000BFA06851
:100E4000A8B1FFF731FC054609E0FFF72DFC401B78
:100E500041F28831884202D9032077E626E03648FD
:100E600068300068C0F340000028EED013E0FFF7C0
:100E70001BFC054608E0FFF717FC401B41F28831D8
:100E8000884201D9032061E62B4868300068C0F32E
:100E900040000028EFD1012F07D1274838300068E3
:100EA00020F0805024493831086000BFA069002834
:100EB00050D02148006800F00C00082860D0A069DC
:100EC000022848D100201D490866FFF7EDFB0546C2
:100ED00006E0FFF7E9FB401B022801D9032035E6B5
:100EE000154808380068C0F340600028F1D1D4E903
:100EF00007010843616A40EA81110122A06AC2EB3E
:100F0000500041EA00412C20005D41EA00613020A0
:100F1000005D41EA00700849091F08600120074987
:100F20000866FFF7C1FB05460EE0FFF7BDFB401B5F
:100F3000022809D9032009E6083802400000474288
:100F4000800E47420070004028480068C0F34060AF
:100F50000028EAD048E0002025490866FFF7A4FBF6
:100F6000054606E0FFF7A0FB401B022801D903203D
:100F7000ECE51E480068C0F340600028F2D133E081
:100F8000A069012800D1E1E51848001D0668A069A4
:100F9000012827D006F48001E069814222D106F0C1
:100FA0003F01206A81421DD147F6C0703040616A1E
:100FB000B0EB811F16D106F440310122A06AC2EBCA
:100FC0005000B1EB004F0DD106F070612C20005D98
:100FD000B1EB006F06D106F0E0413020005DB1EBCF
:100FE000007F01D00120B1E50020AFE500380240CC
:100FF000000047427047704710B504460CB9012005
:1010000010BD94F83D0028B9002084F83C0020462B
:1010100000F025F8022084F83D00211D206800F032
:10102000E7F9012084F8460000BF84F83E00012162
:101030003F200155402001554120015500BF00BF10
:10104000012084F8420043200155442001554520E9
:10105000015500BF012084F83D000020D0E7704713
:10106000014691F83D00012801D00120704702207F
:1010700081F83D000868C06840F001000B68D86046
:101080001A4B086898421BD00868B0F1804F17D0FF
:10109000174B0868984213D0164B086898420FD037
:1010A000154B086898420BD0144B0868984207D03B
:1010B000134B0868984203D0124B086898420CD131
:1010C0000868806800F00702062A0CD008680068EB
:1010D00040F001000B68186005E00868006840F007
:1010E00001000B6818600020C0E70000000001400C
:1010F0000004004000080040000C004000040140D3
:101100000040014000180040704710B504462068B8
:101110000069C0F34000D8B12068C068C0F3400047
:10112000B0B16FF0020021680861012020772068CB
:10113000806900F0030018B12046FFF7E5FF05E0E5
:10114000204600F0ADF8204600F0ABF800202077F4
:1011500020680069C0F38000D8B12068C068C0F37F
:101160008000B0B16FF00400216808610220207790
:101170002068806900F4407018B12046FFF7C4FF72
:1011800005E0204600F08CF8204600F08AF80020A8
:10119000207720680069C0F3C000D8B12068C0681B
:1011A000C0F3C000B0B16FF00800216808610420EE
:1011B00020772068C06900F0030018B12046FFF7CF
:1011C000A3FF05E0204600F06BF8204600F069F828
:1011D0000020207720680069C0F30010D8B1206893
:1011E000C068C0F30010B0B16FF010002168086152
:1011F000082020772068C06900F4407018B12046AC
:10120000FFF782FF05E0204600F04AF8204600F094
:1012100048F8002020772068006900F0010058B1EC
:101220002068C06800F0010030B16FF00100216853
:101230000861204600F036F820680069C0F3C0104D
:1012400058B12068C068C0F3C01030B16FF08000A2
:10125000216808612046FFF7CDFE20680069C0F3D1
:10126000801058B12068C068C0F3801030B16FF0B2
:10127000400021680861204600F020F820680069DD
:10128000C0F3401058B12068C068C0F3401030B1BE
:101290006FF02000216808612046FFF7ACFE10BD0A
:1012A0007047704710B5044603492068884201D151
:1012B000FFF700FA10BD000000200040704700BF9B
:1012C000FEE7000000B587B0142102A8FFF76BF815
:1012D00000BF002001900F48006840F002000D4957
:1012E00008600846006800F00200019000BF00BFDF
:1012F000002280210848FFF7D1F9802002900120C8
:10130000039000200490059002A90348FFF7CAF853
:1013100007B000BD303802400004024000BFFEE7C5
:1013200000BFFEE7704770477047000000B593B0FC
:10133000342106A8FFF737F8142101A8FFF733F886
:1013400000BF002000901F48006840F080501D49F9
:1013500008600846006800F08050009000BF00BFA1
:1013600000BF002000901848006840F44040164933
:1013700008600846006800F44040009000BF00BFCD
:10138000022006900120099010200A9000200C9065
:1013900006A8FFF7D7FB08B1FFF76CF80F20019004
:1013A0000020029003904FF480500490002005909C
:1013B000002101A8FFF774FA08B1FFF75BF813B03A
:1013C00000BD000040380240007000400348006843
:1013D00040F47000014908607047000088ED00E0AB
:1013E00010B50248FFF791FE10BD00001400002068
:1013F00010B50268294B98420ED0B0F1804F0BD047
:10140000274B984208D0274B984205D0264B98424C
:1014100002D0264B984203D122F070024B681A4347
:101420001E4B984220D0B0F1804F1DD01C4B9842EB
:101430001AD01C4B984217D01B4B984214D01B4B10
:10144000984211D01A4B98420ED01A4B98420BD0AA
:10145000194B984208D0194B984205D0184B984226
:1014600002D0184B984203D122F44072CB681A4341
:1014700022F080034C6943EA040202608B68C36275
:101480000B688362054B984202D0084B984201D109
:101490000B6903630123436110BD0000000001409C
:1014A0000004004000080040000C0040000401401F
:1014B0000040014000440140004801400018004045
:1014C000001C00400020004000BFFEE7024800680A
:1014D000C0F30220704700000CED00E010B50028BA
:1014E00004DB0A07130E054A135406E00A07140E1C
:1014F000034A00F00F031B1FD45410BD00E400E0AA
:1015000018ED00E000200B490870FFF7DFF8FFF747
:101510000DFFFFF7D7FE0CE080210748FFF7B4F876
:101520004FF4FA70FEF7AAFF03481430006801492F
:101530000870F1E700000020000402404FF0407006
:10154000E1EE100A704700000000000000000102F8
:10155000030406070809000000000102030400005C
:10156000801500080000002014000000140200088C
:101570009415000814000020AC060000300200089A
:10158000000000000000000010000000010000004A
:041590000024F4003F
:04000005080001D915
:00000001FF
