:020000040800F2
:10000000C807002079020008091800083913000801
:10001000051800086F040008CD1800080000000053
:100020000000000000000000000000000F180008A1
:1000300073040008000000000D18000811180008E3
:10004000930200089302000893020008930200083C
:10005000930200089302000893020008930200082C
:10006000930200089302000893020008930200081C
:10007000930200089302000893020008930200080C
:1000800093020008930200089302000893020008FC
:1000900093020008930200089302000893020008EC
:1000A00093020008930200089302000893020008DC
:1000B00093020008930200089302000893020008CC
:1000C00093020008930200089302000893020008BC
:1000D00093020008930200089302000893020008AC
:1000E000930200089302000893020008930200089C
:1000F000930200089302000893020008930200088C
:10010000930200089302000893020008930200087B
:10011000930200089302000893020008930200086B
:10012000930200089302000893020008930200085B
:10013000930200089302000893020008930200084B
:10014000930200089302000893020008930200083B
:10015000930200089302000893020008930200082B
:10016000930200089302000893020008930200081B
:100170009302000893020008000000000000000045
:1001800093020008930200089302000893020008FB
:100190009302000893020008000000009302000888
:1001A0009302000893020008000000000000000015
:1001B0009302000800000000000000009302000805
:1001C00093020008930200089302000893020008BB
:1001D000930200089302000800F002F800F03CF8D7
:1001E0000AA090E8000C82448344AAF10107DA4592
:1001F00001D100F031F8AFF2090EBAE80F0013F0A8
:10020000010F18BFFB1A43F00103184760170000E5
:1002100080170000103A24BF78C878C1FAD8520776
:1002200024BF30C830C144BF04680C607047000070
:100230000023002400250026103A28BF78C1FBD8EF
:10024000520728BF30C148BF0B6070471FB501F08F
:100250007BFB1FBD10B510BD00F0CFF81146FFF7B6
:10026000F5FF01F051FB00F0EDF803B4FFF7F2FFEA
:1002700003BC00F0F5F80000094880470948004732
:10028000FEE7FEE7FEE7FEE7FEE7FEE7FEE7FEE746
:10029000FEE7FEE704480549054A064B70470000A3
:1002A000B9180008D9010008C8010020C8070020BB
:1002B000C8030020C803002053EA020C00F0698044
:1002C0002DE9F04B4FF00006002B1FBFB3FA83F56A
:1002D00003FA05F424FA05F65E4012BF1643B2FA9B
:1002E00082F502FA05F4C5F120051EBF22FA05FCCD
:1002F00044EA0C04203556EA044C4FEA144418BF73
:10030000641C4FF000084FF00009904271EB030CA1
:1003100039D3002919BFB1FA81F701FA07F6B0FA0B
:1003200080F700FA07F6C7F120071EBF20FA07FC86
:1003300046EA0C062037B6FBF4FCA7EB0507103F96
:1003400007F01F0BCBF120060CFA0BFB2CFA06F67C
:1003500044BFB3460026202FA4BF5E464FF0000BDB
:100360005BEA060C08BF4FF0010B19EB0B09ABFB66
:10037000027C48EB0608C01B06FB02CC0BFB03CC3F
:1003800071EB0C01C1E70B46024641464846BDE809
:10039000F08B13B54FF000004FF00001AFF3008079
:1003A000BDE81C4070474FF0000200B5134694466C
:1003B0009646203922BFA0E80C50A0E80C50B1F1BD
:1003C0002001BFF4F7AF090728BFA0E80C5048BFD1
:1003D0000CC05DF804EB890028BF40F8042B08BF6F
:1003E000704748BF20F8022B11F0804F18BF00F86B
:1003F000012B7047704770477047754600F02CF826
:10040000AE4605006946534620F00700854618B001
:1004100020B5FFF73FFFBDE820404FF000064FF04A
:1004200000074FF000084FF0000B21F00701AC4629
:10043000ACE8C009ACE8C009ACE8C009ACE8C00948
:100440008D46704710B50446AFF300802046BDE8E6
:100450001040FFF70ABF0000004870476401002009
:1004600001491820ABBEFEE726000200704700BF1E
:10047000FEE7704772B600BFFEE7000070B50446A5
:1004800000F008F906462546681C10B104480078BB
:10049000054400BF00F0FEF8801BA842FAD370BDEF
:1004A00008000020F8B502460B4600250024002075
:1004B0000021D0E0012606FA01F51E6806EA0504CF
:1004C000AC4274D11E7906F00306012E04D01E79C9
:1004D00006F00306022E13D190684F000326BE409B
:1004E000B0434F00DE68BE40304390605068012644
:1004F0008E40B0431E79C6F300168E4030435060E4
:100500001E7906F00306032E09D0D0684F0003269B
:10051000BE40B0434F009E68BE403043D0601E795D
:1005200006F00306022E13D1CF0802F1200656F87A
:1005300027004E07F70E0F26BE40B0434F07FF0EB1
:100540001E69BE403043CF0802F1200646F827005E
:1005500010684F000326BE40B0431E7906F0030624
:100560004F00BE40304310605E6806F44036002EF7
:1005700070D000BF00260096394E366846F480469B
:10058000374F3E603E46366806F48046009600BF10
:1005900000BF344E8F0856F827008E07370F0F26FE
:1005A000BE40B043304EB24202D100261FE051E0BF
:1005B0002E4EB24201D1012619E02D4EB24201D198
:1005C000022614E02B4EB24201D103260FE02A4E40
:1005D000B24201D104260AE0284EB24201D10526DA
:1005E00005E0274EB24201D1062600E007268F071C
:1005F0003F0FBE4030431B4E8F0846F82700214E68
:100600003068A0435E6806F4803606B120431D4E74
:100610003060361D3068A0435E6806F4003606B1CF
:100620002043184E361D3060361D3068A0435E688A
:1006300006F4801606B12043124E08363060361D8F
:100640003068A0435E6806F4001606B120430D4EE4
:100650000C363060491C1029FFF42CAFF8BD0000A7
:1006600044380240083801400000024000040240C3
:1006700000080240000C024000100240001402403A
:1006800000180240003C01400AB1816101E00B0406
:100690008361704701480068704700000000002037
:1006A00070B504460CB9012070BD94F83D0028B91E
:1006B000002084F83C00204600F092F9242084F8C1
:1006C0003D002068006820F0010021680860206873
:1006D000006840F40040216808602068006820F449
:1006E00000402168086000F04DFB05465C496068E9
:1006F000884206D85B48854201D2012007E00020ED
:1007000005E05948854201D2012000E0002001287F
:1007100000D1C9E75548B5FBF0F62068406820F0E5
:100720003F003043216848604D496068884201D8E5
:10073000701C07E04FF4967070434FF47A71B0FB71
:10074000F1F0401C2168096A21F03F01084321684B
:10075000086243496068884214D8681E616849008D
:10076000B0FBF1F0401CC0F30B00042801D20420C0
:100770003DE0681E61684900B0FBF1F0401CC0F329
:100780000B0034E0A06838B9681E616801EB4101D4
:10079000B0FBF1F0401C0AE0681E616801EBC10289
:1007A00002EB0111B0FBF1F0401C40F48040C0F3BB
:1007B0000B0008B901201AE0A06848B9681E6168FA
:1007C00001EB4101B0FBF1F0401CC0F30B000CE069
:1007D000681E616801EBC10202EB0111B0FBF1F090
:1007E000401CC0F30B0040F4804040F400402168FE
:1007F000C9694CF6FF72914308432168C861D4E986
:10080000070108432168096821F0C00108432168F5
:100810000860D4E9031008432168896848F2FF3270
:100820009143084321688860D4E9050108432168A1
:10083000C96821F0FF0108432168C860206800688A
:1008400040F001002168086000202064202084F826
:100850003D000020206384F83E0000BF24E7000034
:10086000A086010080841E0000093D0040420F0068
:100870002DE9F8430446894616461F46DDF82080D8
:10088000FFF708FF054694F83D0020287ED1192384
:10089000012251492046009500F0FEFD10B10220D2
:1008A000BDE8F88300BF94F83C00012801D1022084
:1008B000F6E7012084F83C0000BF2068006800F0E3
:1008C000010028B92068006840F001002168086034
:1008D0002068006820F4006021680860212084F806
:1008E0003D00102084F83E00002020646662678589
:1008F000608D20853948E0622B46424649462046B5
:1009000000F03CFD08B10120CAE700BF00200090C4
:1009100020684069009020688069009000BF00BF97
:1009200044E02A464146204600F05BFE50B1206C70
:10093000042805D12068006840F400702168086030
:100940000120ADE7606A007821680861606A401C98
:100950006062608D401E6085208D401E208520686D
:100960004069C0F3800070B1208D60B1606A00788A
:1009700021680861606A401C6062608D401E60856D
:10098000208D401E20852A46414600E022E0204678
:1009900000F054FD50B1206C042805D12068006897
:1009A00040F4007021680860012079E7208D00285C
:1009B000B7D12068006840F40070216808602020EA
:1009C00084F83D00002084F83E0000BF84F83C001D
:1009D00000BF65E7022063E7020010000000FFFF90
:1009E00010B586B00446142101A8FFF7DCFC1B49B2
:1009F0002068884230D100BF00200090184800686D
:100A000040F00200164908600846006800F0020045
:100A1000009000BF00BF4FF41070019012200290B0
:100A200000200390032004900420059001A90D48A4
:100A3000FFF738FD00BF0020009009481030006823
:100A400040F400100649103108600846006800F4C0
:100A50000010009000BF00BF06B010BD0054004061
:100A60003038024000040240034800680349097816
:100A70000844014908607047000000200800002079
:100A800010B50D48006840F400700B490860084636
:100A9000006840F4806008600846006840F4807098
:100AA0000860032000F092F8002000F007F800F042
:100AB0002BF8002010BD0000003C024070B5044639
:100AC0000E4800784FF47A71B1FBF0F00C490968D8
:100AD000B1FBF0F5284600F015FC08B1012070BD0F
:100AE000102C07D200222146501E00F031F8054894
:100AF000046001E00120F2E70020F0E70800002098
:100B00000C0000200400002008B500BF0020009069
:100B10000E48006840F480400C49086008460068B0
:100B200000F48040009000BF00BF00BF0020009094
:100B3000081F006840F08050091F086008460068E0
:100B400000F08050009000BF00BF08BD4438024054
:100B50002DE9F05F80460D461646002700F0B8FEEE
:100B6000074639462A46334601F00700C0F1070A16
:100B7000BAF1040F02D94FF0040A01E0C0F1070AEC
:100B8000D14600F1040ABAF1070F02D24FF0000A71
:100B900001E0A0F1030AD4464FF0010A0AFA09FA6B
:100BA000AAF1010A0AEA020A0AFA0CFA4FF0010B4A
:100BB0000BFA0CFBABF1010B0BEA030B4AEA0B043B
:100BC0002146404600F08CFEBDE8F09F00BF00F0DB
:100BD0000702064B19684FF6FF031940044B0B43FD
:100BE00043EA0221014B196000BF70470CED00E0A1
:100BF0000000FA0570B504460D460CB9012070BD21
:100C00005848006800F00700A84209D255490D7005
:100C10000846006800F00700A84201D00120EEE776
:100C2000207800F0020002281DD1207800F0040096
:100C3000042805D14C48006840F4E0504A49086057
:100C4000207800F00800082805D14748006840F4E3
:100C50006040454908604448006820F0F000A16801
:100C6000084341490860207800F00100A8B360689B
:100C7000012807D13C4808380068C0F34040B8B9A3
:100C80000120BCE76068022802D06068032807D111
:100C9000354808380068C0F3406048B90120AEE725
:100CA000314808380068C0F3400008B90120A6E7C1
:100CB0002D48006820F00300616808432A49086055
:100CC000FFF7E8FC064609E0FFF7E4FC801B41F271
:100CD0008831884202D9032091E707E02248006862
:100CE00000F00C006168B0EB810FEDD11D48006889
:100CF00000F00700A84209D91A490D70084600689B
:100D000000F00700A84201D0012078E7207800F029
:100D10000400042807D11448006820F4E050E1687A
:100D2000084311490860207800F00800082808D11D
:100D30000D48006820F46040216940EAC1000A497A
:100D4000086000F02FF808490968C1F30311074A49
:100D5000515CC8400649086006480068FFF7AEFECF
:100D600000204CE7003C02400838024052190008BD
:100D70000C000020040000200148006870470000BB
:100D80000C00002000B5FFF7F7FF04490968C1F324
:100D90008221034A515CC84000BD0000083802406F
:100DA000621900082DE9F047002400250026A1461D
:100DB0002548006800F00C0020B1042805D0082860
:100DC0003AD105E0DFF8849039E0DFF8849036E02E
:100DD0001D48001F006800F03F041B48001F00680A
:100DE00000F4800078B11A481749091F0968C1F357
:100DF0008811A0FB01700146224600233846FFF708
:100E00005BFA05460EE011480F49091F0968C1F356
:100E10008811A0FB01700146224600233846FFF7E7
:100E20004BFA05460848001F0068C0F30140401C0B
:100E30004600B5FBF6F902E0DFF8109000BF00BFF6
:100E40004846BDE8F0870000083802400024F4005E
:100E500000127A00F8B504460CB90120F8BD2078DC
:100E600000F00100002874D0F748006800F00C0082
:100E700004280DD0F448006800F00C00082813D1B5
:100E8000F148001F006800F48000B0F5800F0BD11E
:100E9000ED4808380068C0F34040002859D0606829
:100EA000002856D10120D9E700BF6068B0F5803F27
:100EB00008D1E5480838006840F48030E249083934
:100EC00008601EE06068B0F5A02F0DD1DE4808383C
:100ED000006840F48020DC49083908600846006852
:100EE00040F4803008600CE0D7480838006820F4EF
:100EF0008030D549083908600846006820F4802011
:100F0000086000BF606890B1FFF7C4FB054606E0CB
:100F1000FFF7C0FB401B642801D903209EE7CA48A5
:100F200008380068C0F340400028F1D011E0FFF716
:100F3000B1FB054606E0FFF7ADFB401B642801D975
:100F400003208BE7C04808380068C0F34040002801
:100F5000F1D1207800F0020002285FD1BA48006881
:100F600000F00C0058B1B848006800F00C000828E8
:100F70001CD1B548001F006800F48000B0B9B24829
:100F800008380068C0F3400020B1E068012801D0B3
:100F9000012063E7AC480838006820F0F8002169B8
:100FA00040EAC100A8490839086037E0E06800B3AA
:100FB0000120A6490860FFF76DFB054606E0FFF734
:100FC00069FB401B022801D9032047E79E480838E7
:100FD0000068C0F340000028F1D09B480838006842
:100FE00020F0F800216940EAC100974908390860FB
:100FF00014E0002095490860FFF74CFB054606E029
:10100000FFF748FB401B022801D9032026E78E4842
:1010100008380068C0F340000028F1D1207800F0C3
:10102000080008282CD16069A8B10120884908600F
:10103000FFF730FB054606E0FFF72CFB401B0228BC
:1010400001D903200AE780486C300068C0F34000F3
:101050000028F1D014E000207D490860FFF71AFB5A
:10106000054606E0FFF716FB401B022801D90320C6
:10107000F4E675486C300068C0F340000028F1D1F8
:10108000207800F00400042870D100276E48383022
:10109000006800F0805090B900BF002000906A48BE
:1010A0003830006840F080506749383108600846A1
:1010B000006800F08050009000BF00BF0127654825
:1010C000006800F48070B0B96248006840F4807035
:1010D00060490860FFF7DEFA054606E0FFF7DAFA36
:1010E000401B022801D90320B8E65A48006800F4E2
:1010F00080700028F2D000BFA068012808D15248B3
:101100006830006840F001004F49683108601DE018
:10111000A06805280DD14C486830006840F00400F4
:101120004949683108600846006840F001000860DD
:101130000CE045486830006820F001004249683101
:1011400008600846006820F00400086000BFA0683E
:10115000A8B1FFF79FFA054609E0FFF79BFA401B8D
:1011600041F28831884202D9032077E626E03648EA
:1011700068300068C0F340000028EED013E0FFF7AD
:1011800089FA054608E0FFF785FA401B41F28831ED
:10119000884201D9032061E62B4868300068C0F31B
:1011A00040000028EFD1012F07D1274838300068D0
:1011B00020F0805024493831086000BFA069002821
:1011C00050D02148006800F00C00082860D0A069C9
:1011D000022848D100201D490866FFF75BFA054642
:1011E00006E0FFF757FA401B022801D9032035E635
:1011F000154808380068C0F340600028F1D1D4E9F0
:1012000007010843616A40EA81110122A06AC2EB2A
:10121000500041EA00412C20005D41EA006130208D
:10122000005D41EA00700849091F08600120074974
:101230000866FFF72FFA05460EE0FFF72BFA401B72
:10124000022809D9032009E6083802400000474275
:10125000800E47420070004028480068C0F340609C
:101260000028EAD048E0002025490866FFF712FA76
:10127000054606E0FFF70EFA401B022801D90320BD
:10128000ECE51E480068C0F340600028F2D133E06E
:10129000A069012800D1E1E51848001D0668A06991
:1012A000012827D006F48001E069814222D106F0AE
:1012B0003F01206A81421DD147F6C0703040616A0B
:1012C000B0EB811F16D106F440310122A06AC2EBB7
:1012D0005000B1EB004F0DD106F070612C20005D85
:1012E000B1EB006F06D106F0E0413020005DB1EBBC
:1012F000007F01D00120B1E50020AFE500380240B9
:101300000000474270B504462546681EB0F1807F54
:1013100001D301200FE0681E4FF0E02148610F214A
:101320004FF0FF3000F0DCFA00204FF0E021886140
:1013300007200861002070BD00BFFEE70146086875
:101340004069C0F38020B0B16FF480600A685061DA
:1013500000200863202081F83D00002081F83E0035
:10136000086C40F00400086400BF002081F83C00D5
:1013700000BF012070470020FCE700002DE9F84382
:1013800004460D4617469846E66A082E04D0012EFC
:1013900002D016F5803F06D12068006840F48070C6
:1013A0002168086008E0206B122805D120680068D9
:1013B00040F48070216808603B4600224FF0011124
:1013C0002046CDF8008000F067F860B12068006822
:1013D00000F48070B0F5807F02D14FF4007020647B
:1013E0000320BDE8F8832069B0F5804F04D105F0F3
:1013F000FE002168086112E005F44070F02141EA26
:10140000E0102168086143463A460B49204600F047
:1014100086F808B10120E4E7E8B221680861434694
:101420003A460549891F204600F079F808B10120A5
:10143000D7E70020D5E700000800010070B504469A
:101440000D46164620E02046FFF778FF08B1012040
:1014500070BD681CC0B1FFF71DF9801BA84200D801
:1014600095B900202063202084F83D00002084F8F6
:101470003E00206C40F02000206400BF002084F873
:101480003C0000BF0120E3E720684069C0F3800012
:101490000028D8D00020DBE72DE9F04104460D46B6
:1014A00017461E46DDF818801CE0701CD0B1FFF70F
:1014B000F1F8A0EB0800B04200D89EB900202063EC
:1014C000202084F83D00002084F83E00206C40F08D
:1014D0002000206400BF002084F83C0000BF0120F1
:1014E000BDE8F081C5F3074001280AD120684069B2
:1014F000A9B20840A9B2884201D101200BE0002026
:1015000009E020688069A9B20840A9B2884201D1E7
:10151000012000E00020B842C7D00020E0E72DE91C
:10152000F04104460D4616461F463DE020684069DE
:10153000C0F38020E8B12068006840F400702168A2
:1015400008606FF4806021684861002020632020DB
:1015500084F83D00002084F83E00206C40F0040038
:10156000206400BF002084F83C0000BF0120BDE8DB
:10157000F081701CC0B1FFF78DF8C01BB04200D8DD
:1015800096B900202063202084F83D00002084F8D4
:101590003E00206C40F02000206400BF002084F852
:1015A0003C0000BF0120E2E7C5F3074001280AD153
:1015B00020684069A9B20840A9B2884201D101203F
:1015C0000BE0002009E020688069A9B20840A9B2B8
:1015D000884201D1012000E000200028A6D0002090
:1015E000C5E770B504460D46164620E02046FFF7D5
:1015F000A5FE08B1012070BD681CC0B1FFF74AF814
:10160000801BA84200D895B900202063202084F8D0
:101610003D00002084F83E00206C40F02000206453
:1016200000BF002084F83C0000BF0120E3E72068F1
:101630004069C0F3C0100028D8D00020DBE70000CC
:1016400000B587B0142102A8FEF7ADFE00BF002050
:1016500001905748006840F004005549086008466A
:10166000006800F00400019000BF00BF00BF002030
:1016700001900846006840F0800008600846006855
:1016800000F08000019000BF00BF00BF002001906B
:101690000846006840F0020008600846006800F054
:1016A0000200019000BF00BF00BF0020019008466B
:1016B000006840F0080008600846006800F0080074
:1016C000019000BF00BF00BF0020019008460068E5
:1016D00040F0400008600846006800F040000190BB
:1016E00000BF00BF00BF002001900846006840F026
:1016F000010008600846006800F00100019000BF8A
:1017000000BF002244F281012A48FEF7BDFF0022FB
:1017100040212948FEF7B8FF4FF4005002904FF4E3
:10172000881003900020049002A92448FEF7BAFE16
:1017300044F2810002900120039000200490059063
:1017400002A91C48FEF7AEFE4FF440700290022042
:10175000039000200490032005900720069002A922
:101760001748FEF79FFE40200290012003900020C2
:101770000490059002A91048FEF794FE8020029084
:1017800000200390049002A90B48FEF78BFE4FF453
:10179000E85002900220039000200490032005905E
:1017A0000A20069002A90748FEF77CFE07B000BD9C
:1017B0003038024000040240001802400008024095
:1017C000000C02400000024010B50B480B490860B5
:1017D0000B484860002109488160C1604FF4804196
:1017E0000161002141618161C1610162FEF758FF21
:1017F00008B1FEF73FFE10BD00540040100000206D
:10180000A086010000BFFEE700BFFEE770477047FB
:1018100010B5FFF729F910BD00B593B0342106A823
:10182000FEF7C1FD142101A8FEF7BDFD00BF002099
:1018300000901F48006840F080501D49086008462D
:10184000006800F08050009000BF00BF00BF002083
:1018500000901848006840F4404016490860084667
:10186000006800F44040009000BF00BF02200690D6
:101870000120099010200A9000200C9006A8FFF784
:10188000E9FA08B1FEF7F6FD0F2001900020029062
:1018900003904FF48050049000200590002101A88F
:1018A000FFF7A8F908B1FEF7E5FD13B000BD000091
:1018B00040380240007000400348006840F4700067
:1018C000014908607047000088ED00E000BFFEE7B6
:1018D00002480068C0F30220704700000CED00E0F1
:1018E00010B5002804DB0A07130E054A135406E05E
:1018F0000A07140E034A00F00F031B1FD45410BD37
:1019000000E400E018ED00E008B5FFF7B9F8FFF7D4
:1019100083FFFFF795FEFFF757FF01200849087086
:10192000022048700AE0C8200223054AA021009046
:101930000448FEF79DFF6420FEF7A0FDF3E70000DA
:1019400064000020100000204FF04070E1EE100A0B
:1019500070470000000000000000010203040607B9
:101960000809000000000102030400008C190008AF
:101970000000002010000000140200089C1900085C
:1019800010000020B807000030020008000000002E
:0C19900010000000010000000024F40022
:04000005080001D915
:00000001FF
