:020000040800F2
:10000000000700204D020008511700085B1400088B
:100010004D1700084304000887190008000000007D
:10002000000000000000000000000000571700085A
:100030004704000800000000551700085917000881
:1000400067020008670200086702000867020008EC
:1000500067020008670200086702000867020008DC
:1000600067020008670200086702000867020008CC
:1000700067020008670200086702000867020008BC
:1000800067020008670200086702000867020008AC
:10009000670200086702000867020008670200089C
:1000A000670200086702000867020008670200088C
:1000B00019180008291800086702000867020008DC
:1000C000670200086702000867020008670200086C
:1000D000670200086702000867020008670200085C
:1000E000670200086702000867020008670200084C
:1000F000670200086702000867020008670200083C
:10010000670200086702000867020008670200082B
:10011000670200086702000867020008670200081B
:10012000670200086702000867020008670200080B
:1001300067020008670200086702000867020008FB
:1001400067020008670200086702000867020008EB
:1001500067020008670200086702000867020008DB
:1001600067020008670200086702000867020008CB
:10017000670200086702000867020008000000002C
:1001800067020008670200086702000867020008AB
:10019000670200086702000867020008670200089B
:1001A00067020008670200086702000800F002F812
:1001B00000F03CF80AA090E8000C82448344AAF1C5
:1001C0000107DA4501D100F031F8AFF2090EBAE8C3
:1001D0000F0013F0010F18BFFB1A43F0010318477B
:1001E0003418000054180000103A24BF78C878C1B1
:1001F000FAD8520724BF30C830C144BF04680C602D
:10020000704700000023002400250026103A28BF74
:1002100078C1FBD8520728BF30C148BF0B60704778
:100220001FB501F0E5FB1FBD10B510BD00F0CFF804
:100230001146FFF7F5FF01F0C5FB00F0EDF803B440
:10024000FFF7F2FF03BC00F0F5F800000948804713
:1002500009480047FEE7FEE7FEE7FEE7FEE7FEE7A8
:10026000FEE7FEE7FEE7FEE704480549054A064BC0
:100270007047000005180008AD01000800010020CB
:1002800000070020000300200003002053EA020CB6
:1002900000F069802DE9F04B4FF00006002B1FBFE6
:1002A000B3FA83F503FA05F424FA05F65E4012BFAB
:1002B0001643B2FA82F502FA05F4C5F120051EBF15
:1002C00022FA05FC44EA0C04203556EA044C4FEAB5
:1002D000144418BF641C4FF000084FF0000990420E
:1002E00071EB030C39D3002919BFB1FA81F701FA78
:1002F00007F6B0FA80F700FA07F6C7F120071EBF2D
:1003000020FA07FC46EA0C062037B6FBF4FCA7EB04
:100310000507103F07F01F0BCBF120060CFA0BFB73
:100320002CFA06F644BFB3460026202FA4BF5E4633
:100330004FF0000B5BEA060C08BF4FF0010B19EB06
:100340000B09ABFB027C48EB0608C01B06FB02CC8A
:100350000BFB03CC71EB0C01C1E70B460246414697
:100360004846BDE8F08B13B54FF000004FF0000198
:10037000AFF30080BDE81C4070474FF0000200B5AD
:10038000134694469646203922BFA0E80C50A0E8B8
:100390000C50B1F12001BFF4F7AF090728BFA0E866
:1003A0000C5048BF0CC05DF804EB890028BF40F832
:1003B000042B08BF704748BF20F8022B11F0804F74
:1003C00018BF00F8012B704770477047704775469B
:1003D00000F02CF8AE4605006946534620F00700B1
:1003E000854618B020B5FFF73FFFBDE820404FF02D
:1003F00000064FF000074FF000084FF0000B21F00F
:100400000701AC46ACE8C009ACE8C009ACE8C009DB
:10041000ACE8C0098D46704710B50446AFF30080C4
:100420002046BDE81040FFF70ABF000000487047B3
:10043000A000002001491820ABBEFEE72600020004
:10044000704700BFFEE7704772B600BFFEE70000CE
:10045000F8B502460B460025002400200021DFE00D
:10046000012606FA01F51E6806EA0504AC4274D1BD
:100470001E7906F00306012E04D01E7906F003064D
:10048000022E13D190684F000326BE40B0434F00A8
:10049000DE68BE4030439060506801268E40B04315
:1004A0001E79C6F300168E40304350601E7906F068
:1004B0000306032E09D0D0684F000326BE40B04388
:1004C0004F009E68BE403043D0601E7906F00306A0
:1004D000022E13D1CF0802F1200656F827004E074E
:1004E000F70E0F26BE40B0434F07FF0E1E69BE40F9
:1004F0003043CF0802F1200646F8270010684F006D
:100500000326BE40B0431E7906F003064F00BE40EE
:10051000304310605E6806F44036002E7FD000BF86
:1005200000260096404E366846F480463E4F3E60B8
:100530003E46366806F48046009600BF00BF3B4E3C
:100540008F0856F827008E07370F0F26BE40B0439E
:10055000374EB24202D100262EE060E0354EB24264
:1005600001D1012628E0344EB24201D1022623E017
:10057000324EB24201D103261EE0314EB24201D1C9
:10058000042619E02F4EB24201D1052614E02E4E6A
:10059000B24201D106260FE02C4EB24201D107260D
:1005A0000AE02B4EB24201D1082605E0294EB242A4
:1005B00001D1092600E00A268F073F0FBE403043D5
:1005C0001A4E8F0846F82700234E3068A0435E6815
:1005D00006F4803606B120431F4E3060361D306869
:1005E000A0435E6806F4003606B120431A4E361D5D
:1005F0003060361D3068A0435E6806F4801606B190
:100600002043154E08363060361D3068A0435E68C2
:1006100006F4001606B120430F4E0C363060491C1C
:100620001029FFF41DAFF8BD4438024008380140DE
:10063000000002400004024000080240000C02409A
:10064000001002400014024000180240001C02404A
:100650000020024000240240003C014010B54269E5
:1006600021EA020302EA010443EA0443836110BD64
:100670000AB1816101E00B048361704701480068A1
:100680007047000000000020034800680349097813
:10069000084401490860704700000020080000205D
:1006A00010B50D48006840F400700B49086008461A
:1006B000006840F4806008600846006840F480707C
:1006C0000860032000F0A2F8002000F007F800F016
:1006D0002BF8002010BD0000003C024070B504461D
:1006E0000E4800784FF47A71B1FBF0F00C490968BC
:1006F000B1FBF0F5284600F005FC08B1012070BD03
:10070000102C07D200222146501E00F041F8054867
:10071000046001E00120F2E70020F0E7080000207B
:100720000C0000200400002008B500BF002000904D
:100730000E48006840F480400C4908600846006894
:1007400000F48040009000BF00BF00BF0020009078
:10075000081F006840F08050091F086008460068C4
:1007600000F08050009000BF00BF08BD4438024038
:1007700001460846002809DB00F01F0301229A40C9
:1007800043099B0003F1E023C3F8002100BF704739
:100790002DE9F05F80460D461646002701F0F6F879
:1007A000074639462A46334601F00700C0F1070ADA
:1007B000BAF1040F02D94FF0040A01E0C0F1070AB0
:1007C000D14600F1040ABAF1070F02D24FF0000A35
:1007D00001E0A0F1030AD4464FF0010A0AFA09FA2F
:1007E000AAF1010A0AEA020A0AFA0CFA4FF0010B0E
:1007F0000BFA0CFBABF1010B0BEA030B4AEA0B04FF
:100800002146404601F0CAF8BDE8F09F00BF00F065
:100810000702064B19684FF6FF031940044B0B43C0
:1008200043EA0221014B196000BF70470CED00E064
:100830000000FA0570B504460D460CB9012070BDE4
:100840005848006800F00F00A84209D255490D70C1
:100850000846006800F00F00A84201D00120EEE732
:10086000207800F0020002281DD1207800F004005A
:10087000042805D14C48006840F4E0504A4908601B
:10088000207800F00800082805D14748006840F4A7
:100890006040454908604448006820F0F000A168C5
:1008A000084341490860207800F00100A8B360685F
:1008B000012807D13C4808380068C0F34040B8B967
:1008C0000120BCE76068022802D06068032807D1D5
:1008D000354808380068C0F3406048B90120AEE7E9
:1008E000314808380068C0F3400008B90120A6E785
:1008F0002D48006820F00300616808432A49086019
:10090000FFF7BCFE064609E0FFF7B8FE801B41F288
:100910008831884202D9032091E707E02248006825
:1009200000F00C006168B0EB810FEDD11D4800684C
:1009300000F00F00A84209D91A490D700846006856
:1009400000F00F00A84201D0012078E7207800F0E5
:100950000400042807D11448006820F4E050E1683E
:10096000084311490860207800F00800082808D1E1
:100970000D48006820F46040216940EAC1000A493E
:10098000086000F019F808490968C1F30311074A23
:10099000515CC8400649086006480068FFF79EFEA3
:1009A00000204CE7003C024008380240FA190008D9
:1009B0000C000020040000202DE9F0470024002551
:1009C0000026A1462548006800F00C0020B104284C
:1009D00005D008283AD105E0DFF8849039E0DFF847
:1009E000849036E01D48001F006800F03F041B485B
:1009F000001F006800F4800078B11A481749091FE9
:100A00000968C1F38811A0FB01700146224600234A
:100A10003846FFF73BFC05460EE011480F49091F19
:100A20000968C1F38811A0FB01700146224600232A
:100A30003846FFF72BFC05460848001F0068C0F346
:100A40000140401C4600B5FBF6F902E0DFF81090CB
:100A500000BF00BF4846BDE8F087000008380240EC
:100A60000024F40000127A00F8B504460CB9012005
:100A7000F8BD207800F00100002874D0F948006823
:100A800000F00C0004280DD0F648006800F00C00BF
:100A9000082813D1F348001F006800F48000B0F567
:100AA000800F0BD1EF4808380068C0F340400028A1
:100AB00059D06068002856D10120D9E700BF60688E
:100AC000B0F5803F08D1E7480838006840F480302E
:100AD000E449083908601EE06068B0F5A02F0DD128
:100AE000E0480838006840F48020DE490839086092
:100AF0000846006840F4803008600CE0D9480838A7
:100B0000006820F48030D74908390860084600683A
:100B100020F48020086000BF606890B1FFF7AEFD50
:100B2000054606E0FFF7AAFD401B642801D9032013
:100B30009EE7CC4808380068C0F340400028F1D058
:100B400011E0FFF79BFD054606E0FFF797FD401B10
:100B5000642801D903208BE7C24808380068C0F335
:100B600040400028F1D1207800F0020002285FD137
:100B7000BC48006800F00C0058B1BA48006800F0AA
:100B80000C0008281CD1B748001F006800F4800042
:100B9000B0B9B44808380068C0F3400020B1E0683C
:100BA000012801D0012063E7AE480838006820F032
:100BB000F800216940EAC100AA490839086037E015
:100BC000E06800B30120A8490860FFF757FD05461B
:100BD00006E0FFF753FD401B022801D9032047E739
:100BE000A04808380068C0F340000028F1D09D48B4
:100BF0000838006820F0F800216940EAC1009949EE
:100C00000839086014E0002097490860FFF736FDB6
:100C1000054606E0FFF732FD401B022801D90320FC
:100C200026E7904808380068C0F340000028F1D15A
:100C3000207800F0080008282CD16069A8B10120B4
:100C40008A490860FFF71AFD054606E0FFF716FD22
:100C5000401B022801D903200AE782486C30006853
:100C6000C0F340000028F1D014E000207F49086064
:100C7000FFF704FD054606E0FFF700FD401B0228D4
:100C800001D90320F4E677486C300068C0F34000D7
:100C90000028F1D1207800F00400042870D100274A
:100CA00070483830006800F0805090B900BF0020D4
:100CB00000906C483830006840F080506949383105
:100CC00008600846006800F08050009000BF00BF38
:100CD00001276748006800F48070B0B96448006874
:100CE00040F4807062490860FFF7C8FC054606E0E2
:100CF000FFF7C4FC401B022801D90320B8E65C487A
:100D0000006800F480700028F2D000BFA0680128BD
:100D100008D154486830006840F0010051496831FA
:100D200008601DE0A06805280DD14E4868300068B5
:100D300040F004004B49683108600846006840F004
:100D4000010008600CE047486830006820F00100AE
:100D50004449683108600846006820F004000860D3
:100D600000BFA068A8B1FFF789FC054609E0FFF7BE
:100D700085FC401B41F28831884202D9032077E686
:100D800026E0384868300068C0F340000028EED004
:100D900013E0FFF773FC054608E0FFF76FFC401B0C
:100DA00041F28831884201D9032061E62D4868303C
:100DB0000068C0F340000028EFD1012F07D1294877
:100DC0003830006820F0805026493831086000BF74
:100DD000A069002845D02348006800F00C000828CE
:100DE0005DD0A069022845D100201F490866FFF7A1
:100DF00045FC054606E0FFF741FC401B022801D9EF
:100E0000032035E6174808380068C0F34060002822
:100E1000F1D1D4E907010843616A40EA8111012256
:100E2000A06AC2EB500041EA00412C20005D41EA7B
:100E300000600C49091F086001200B490866FFF794
:100E40001DFC054606E0FFF719FC401B022801D9EE
:100E500003200DE6034808380068C0F3406000280E
:100E6000F1D049E00838024000004742800E474276
:100E700000700040002021490866FFF7FFFB05468F
:100E800006E0FFF7FBFB401B022801D90320EFE53A
:100E90001B480068C0F340600028F2D12CE0A06934
:100EA000012800D1E4E51648001D0668A069012864
:100EB00020D006F48001E06981421BD106F03F0199
:100EC000206A814216D147F6C0703040616AB0EBAB
:100ED000811F0FD106F440310122A06AC2EB5000FD
:100EE000B1EB004F06D106F070612C20005DB1EB34
:100EF000006F01D00120BBE50020B9E500004742AA
:100F00000038024070B504462546681EB0F1807F67
:100F100001D301200FE0681E4FF0E02148610F214E
:100F20004FF0FF3000F03AFD00204FF0E0218861E3
:100F300007200861002070BD7047704730B5024639
:100F40000B4600BF92F83C00012801D1022030BDC1
:100F5000012082F83C0000BF022082F83D001068AA
:100F600044681068816824F07004186804431068AD
:100F70004460184D1068A8421BD01068B0F1804F33
:100F800017D0154D1068A84213D0144D1068A84210
:100F90000FD0134D1068A8420BD0124D1068A84214
:100FA00007D0114D1068A84203D0104D1068A84218
:100FB00005D121F08001586801431068816001204B
:100FC00082F83D0000BF002082F83C0000BF00BF57
:100FD000BDE70000000001400004004000080040A0
:100FE000000C004000040140004001400018004097
:100FF00010B504460CB9012010BD94F83D0028B985
:10100000002084F83C00204600F026F8022084F8F6
:101010003D00211D206800F00FFC012084F84600EF
:1010200000BF84F83E0001213F20015540200155BA
:101030004120015500BF00BF012084F84200432039
:101040000155442001554520015500BF012084F879
:101050003D000020D0E7000038B504462068B0F11C
:10106000804F18D100BF002000901948006840F060
:101070000100174908600846006800F00100009070
:1010800000BF00BF002211461C20FFF781FB1C207F
:10109000FFF76EFB1BE00F492068884217D100BFA5
:1010A000002000900A48006840F0020008490860EB
:1010B0000846006800F00200009000BF00BF002258
:1010C00011461D20FFF764FB1D20FFF751FB38BDC3
:1010D0004038024000040040014691F83D000128DC
:1010E00001D001207047022081F83D000868C068E7
:1010F00040F001000B68D8601A4B086898421BD07A
:101100000868B0F1804F17D0174B0868984213D089
:10111000164B086898420FD0154B086898420BD0C0
:10112000144B0868984207D0134B0868984203D0C4
:10113000124B086898420CD10868806800F00702DA
:10114000062A0CD00868006840F001000B6818609F
:1011500005E00868006840F001000B681860002096
:10116000C0E700000000014000040040000800400B
:10117000000C004000040140004001400018004005
:101180002DE9F04104460D46002700BF94F83C00CD
:10119000012802D10220BDE8F081012084F83C0042
:1011A00000BF022084F83D002068866826F077069C
:1011B00026F47F46206886602868502833D00CDCEF
:1011C000202850D004DC00284BD0102851D149E011
:1011D000302849D040284CD139E060282DD07028E3
:1011E00007D0B0F5805F03D0B0F5005F41D10DE0CE
:1011F00041E0D5E902136A68206800F089FB2068A5
:10120000866846F077062068866034E0D5E90213E8
:101210006A68206800F07CFB2068806840F48040A9
:101220002168886027E0EA686968206800F084FB2C
:101230005021206800F077FB1DE0EA6869682068AB
:1012400000F08DFB6021206800F06DFB13E0EA6880
:101250006968206800F070FB4021206800F063FBA3
:1012600009E000BF00BF00BF2968206800F05BFBF9
:1012700001E0012700BF00BF012084F83D0000BF4E
:10128000002084F83C0000BF384684E7704710B562
:10129000044620680069C0F34000D8B12068C068E7
:1012A000C0F34000B0B16FF0020021680861012076
:1012B00020772068806900F0030018B12046FFF70E
:1012C000E5FF05E0204600F0ADF8204600F0ABF861
:1012D0000020207720680069C0F38000D8B1206822
:1012E000C068C0F38000B0B16FF0040021680861ED
:1012F000022020772068806900F4407018B12046F1
:10130000FFF7C4FF05E0204600F08CF8204600F00F
:101310008AF80020207720680069C0F3C000D8B1A7
:101320002068C068C0F3C000B0B16FF00800216849
:101330000861042020772068C06900F0030018B11C
:101340002046FFF7A3FF05E0204600F06BF820469B
:1013500000F069F80020207720680069C0F30010D1
:10136000D8B12068C068C0F30010B0B16FF01000B1
:1013700021680861082020772068C06900F4407067
:1013800018B12046FFF782FF05E0204600F04AF83A
:10139000204600F048F8002020772068006900F01F
:1013A000010058B12068C06800F0010030B16FF052
:1013B000010021680861204600F036F820680069C5
:1013C000C0F3C01058B12068C068C0F3C01030B17D
:1013D0006FF08000216808612046FFF7ADFD2068AE
:1013E0000069C0F3801058B12068C068C0F3801055
:1013F00030B16FF0400021680861204600F02CF801
:1014000020680069C0F3401058B12068C068C0F37C
:10141000401030B16FF02000216808612046FFF7CE
:101420008CFD10BD7047704710B504460849206810
:10143000884203D101210748FFF710F92068B0F175
:10144000804F03D180210348FFF708F910BD000049
:101450000004004000040240704700BFFEE70000A7
:1014600000B587B0142102A8FEF787FF00BF002057
:1014700001907948006840F0040077490860084608
:10148000006800F00400019000BF00BF00BF002012
:1014900001900846006840F0800008600846006837
:1014A00000F08000019000BF00BF00BF002001904D
:1014B0000846006840F0010008600846006800F037
:1014C0000100019000BF00BF00BF0020019008464E
:1014D000006840F0020008600846006800F0020062
:1014E000019000BF00BF00BF0020019008460068C7
:1014F00040F0080008600846006800F0080001900D
:1015000000BF00BF00BF002001900846006840F007
:10151000400008600846006800F04000019000BFED
:1015200000BF002244F281014C48FFF7A1F80022DD
:1015300040214B48FFF79CF84FF4005002904FF4C5
:10154000881003900020049002A94648FEF780FF0F
:101550003220029002200390002004900320059086
:101560000B20069002A93F48FEF772FF86200290EA
:101570000220039000200490032005900B20069089
:1015800002A93948FEF764FF44F28100029001206D
:10159000039000200490059002A93048FEF758FF00
:1015A0004FF400500290022003900020049003208A
:1015B00005900B20069002A92848FEF749FF4FF43A
:1015C00040700290022003900020049003200590B8
:1015D0000720069002A92548FEF73AFF4020029016
:1015E0000120039000200490059002A91C48FEF7FA
:1015F0002FFF8020029000200390049002A9184839
:10160000FEF726FF4FF4E8500290022003900020DE
:101610000490032005900A20069002A91248FEF7C4
:1016200017FF4FF40070029000200390049002A96D
:101630000D48FEF70DFF4FF420500290022003905A
:1016400000200490032005900B20069002A9044876
:10165000FEF7FEFE07B000BD303802400004024035
:10166000001802400008024000000240000C024046
:1016700000B587B00020039004900590069001907B
:1016800002904FF080401449086043F67F60486044
:101690000021114881604FF49671C1600021016101
:1016A0008161FFF7A5FC08B1FEF7CEFE4FF4805034
:1016B000039003A90848FFF763FD08B1FEF7C4FED5
:1016C00000200190029001A90348FFF737FC08B100
:1016D000FEF7BAFE07B000BD1000002000B587B0CD
:1016E0000020039004900590069001900290154808
:1016F0001549086043F67F60486000211248816008
:101700004FF4FA71C160002101618161FFF770FC43
:1017100008B1FEF799FE4FF48050039003A90A48E0
:10172000FFF72EFD08B1FEF78FFE0020019002901A
:1017300001A90548FFF702FC08B1FEF785FE07B0D6
:1017400000BD0000000400405800002000BFFEE77C
:1017500000BFFEE77047704710B5FEF795FF10BD5C
:1017600000B593B0302107A8FEF707FE142102A8A8
:10177000FEF703FE00BF002001902048006840F003
:1017800080501E4908600846006800F080500190B3
:1017900000BF00BF00BF002001901948006820F47E
:1017A000404040F48040164908600846006800F454
:1017B0004040019000BF00BF0220079001200A9026
:1017C00010200B9000200D9007A8FFF74DF908B1ED
:1017D000FEF73AFE0F2002900020039004904FF491
:1017E0008050059000200690002102A8FFF722F803
:1017F00008B1FEF729FE13B000BD000040380240DA
:10180000007000400348006840F47000014908601F
:101810007047000088ED00E010B50248FFF737FD83
:1018200010BD00001000002010B50248FFF72FFD8A
:1018300010BD00005800002010B50268294B9842E6
:101840000ED0B0F1804F0BD0274B984208D0274BD9
:10185000984205D0264B984202D0264B984203D19D
:1018600022F070024B681A431E4B984220D0B0F110
:10187000804F1DD01C4B98421AD01C4B984217D059
:101880001B4B984214D01B4B984211D01A4B9842D4
:101890000ED01A4B98420BD0194B984208D0194BD6
:1018A000984205D0184B984202D0184B984203D169
:1018B00022F44072CB681A4322F080034C6943EA59
:1018C000040202608B68C3620B688362054B984216
:1018D00002D0084B984201D10B6903630123436195
:1018E00010BD00000000014000040040000800405E
:1018F000000C004000040140004001400044014051
:101900000048014000180040001C0040002000403A
:1019100030B50C46816821F47F4142EA0325254316
:101920002943816030BD0A46816821F0700142F090
:10193000070319438160704730B50B461446026AAD
:10194000056A25F001050562816921F0F00141EA8F
:10195000041122F00A021A438161026230BD30B5DF
:101960000B461446056A25F0100505628169026A76
:1019700021F4704141EA043122F0A00242EA03124C
:101980008161026230BD00BFFEE7000002480068CE
:10199000C0F30220704700000CED00E010B50028F5
:1019A00004DB0A07130E054A135406E00A07140E57
:1019B000034A00F00F031B1FD45410BD00E400E0E5
:1019C00018ED00E0FEF76CFEFFF7CAFEFFF748FDDA
:1019D000FFF784FEFFF74CFE0348FFF77DFB03484B
:1019E000FFF77AFB00BFFEE7100000205800002040
:1019F0004FF04070E1EE100A704700000000000058
:101A000000000102030406070809000000000102AB
:101A100003040000341A0008000000201000000039
:101A2000E8010008441A000810000020F006000039
:101A30000402000800000000100000000100000087
:041A40000024F4008A
:04000005080001AD41
:00000001FF
